S012000070726F6A365F76302E312E73726563BD
S11300000C942A000C9434000C9434000C943400A6
S11300100C9434000C9434000C9434000C9434008C
S11300200C9434000C9436000C9434000C94F100BD
S11300300C9434000C9434000C9434000C9434006C
S11300400C9434000C9434000C9434000C9434005C
S11300500C94340011241FBECFE5D4E0DEBFCDBF25
S11300600E9461010C946F010C9400001F920F9286
S11300700FB60F9211242F938F939F93EF93FF93B7
S1130080809173009091740024E622BF873018F4A5
S11300908F5F990F02C091E080E015BAE82FF0E07D
S11300A0E05AFF4FE081F0E0E859FF4F20812BBB7D
S11300B095BB8093730090937400FF91EF919F918F
S11300C08F912F910F900FBE0F901F9018958AE07B
S11300D0809360008093610080936200809363004A
S11300E0809364008093650080936600809367002A
S11300F008958F70E0E6F0E090818193892FE836CF
S1130100F105D1F7089525E02093750090BD89B9D4
S11301101BB888E98AB986E080BD089597E090937A
S1130120730080E88093740085E08093600086E02B
S1130130809361009093620098E09093630099E04B
S1130140909364001092650091E09093660022E021
S113015020936700909368009FE49093690092E174
S113016090936A0080936B008CE480936C0084E22B
S113017080936D0080E280936E008FE080936F0027
S11301801092700084E0809371008FEF809372006E
S1130190089584E682BF81E089BF84E083BF089527
S11301A081B58B6081BD8FEF84BB8FE78ABB000074
S11301B08FEF9FEF0E9483000E94C90078940895F6
S11301C05D9BFECF84BD08958FE40E94E0008BE424
S11301D00E94E0008DE00E94E0008AE00E94E000BE
S11301E008951F920F920FB60F9211242F933F93ED
S11301F04F935F936F937F938F939F93AF93BF932B
S1130200EF93FF93A8958CB18CB1B0E0A6E7FC9274
S113021000008091760090917500933071F128F47C
S11302209130E9F09230F9F031C0943051F19530C9
S113023069F5813421F481E08093750027C08E3400
S113024031F40E94670082E0809375001FC08334FC
S1130250E9F40E94670083E08093750017C083E08F
S11302608093750013C08D3021F484E08093750071
S11302700DC090E00E94790009C084E0809375006D
S113028005C00E94E40085E080937500FF91EF9122
S1130290BF91AF919F918F917F916F915F914F919A
S11302A03F912F910F900FBE0F901F90189582E5EC
S11302B00E94E0008DE00E94E0008AE00E94E000DD
S11302C0089580917500811105C00E948E000E94DE
S11302D0D00004C00E94D0000E945701FFCFF894C0
S10502E0FFCF4A
S9030000FC
