:100000000C942A000C9434000C9434000C943400AA
:100010000C9434000C9434000C9434000C94340090
:100020000C9434000C9436000C9434000C94EB00C7
:100030000C9434000C9434000C9434000C94340070
:100040000C9434000C9434000C9434000C94340060
:100050000C94340011241FBECFE5D4E0DEBFCDBF29
:100060000E9450010C9453010C9400001F920F92B7
:100070000FB60F9211242F938F939F93EF93FF93BB
:10008000809173009091740024E622BF873018F4A9
:100090008F5F990F02C091E080E015BAE82FF0E081
:1000A000E05AFF4FE081F0E0E859FF4F20812BBB81
:1000B00095BB8093730090937400FF91EF919F9193
:1000C0008F912F910F900FBE0F901F9018958AE07F
:1000D000809360008093610080936200809363004E
:1000E000809364008093650080936600809367002E
:1000F00008958F70E0E6F0E090818193892FE836D3
:10010000F105D1F708951092750090BD89B91BB81B
:1001100088E98AB986E080BD089584E682BF81E0DF
:1001200089BF84E083BF089585E08093600086E006
:100130008093610097E09093620028E02093630031
:1001400029E0209364001092650021E0209366006E
:1001500032E030936700209368002FE42093690019
:1001600022E120936A0080936B008CE480936C0002
:1001700084E280936D0080E280936E008FE0809334
:100180006F001092700084E0809371008FEF809375
:1001900072009093730090E89093740084BB8FE793
:1001A0008ABB00008FEF9FEF0E9483000E948D00AA
:1001B000789408955D9BFECF84BD08958FE40E94DE
:1001C000DA008BE40E94DA008DE00E94DA008AE017
:1001D0000E94DA0008951F920F920FB60F92112419
:1001E0002F933F934F935F936F937F938F939F933F
:1001F000AF93BF93EF93FF938CB18CB1B0E0A6E7C0
:10020000FC9200008091760090917500923029F167
:1002100028F4992341F09130E1F031C0933039F165
:10022000943049F12CC0813421F481E08093750031
:1002300026C08E3431F40E94670082E080937500FE
:100240001EC08334E1F40E94670083E08093750050
:1002500016C083E08093750012C08D3021F484E0D5
:10026000809375000CC090E00E94790008C084E083
:100270008093750004C00E94DE0010927500FF910B
:10028000EF91BF91AF919F918F917F916F915F910E
:100290004F913F912F910F900FBE0F901F90189587
:0A02A0000E949400FFCFF894FFCFF6
:00000001FF
