:020000020000FC
:02000000FFC03F
:0200240028C1F1
:1002000017E030E8A0E6B0E005E00D9306E00D93BE
:1002100007E00D9308E00D9309E00D9301E00D93C5
:1002200002E00D9303E00D9301E00D930FE40D93B5
:1002300002E10D9306E00D930CE40D9304E20D939F
:1002400000E20D930FE00D9300E00D9304E00D9399
:1002500008E0A0E6A00F04E00EBF0FE50DBF789404
:1002600004E602BF01E009BF04E003BF0FEF04BBD7
:100270000FE707BBFFCF04E602BF1395183019F054
:10028000330F2D9104C031E010E0A8502D9108E00B
:10029000A0E6A00FA20F4C9100E005BB48BB35BB08
:0802A000A0E6A10FA39518953B
:00000001FF
