:020000020000FC
:02000000FFC03F
:020024002BC1EE
:02002C0040C1D1
:0200300071C19C
:1002000017E030E8A0E6B0E005E00D9306E00D93BE
:1002100007E00D9308E00D9309E00D9301E00D93C5
:1002200002E00D930AE00D9301E00D930FE40D93AE
:1002300002E10D9306E00D930CE40D9304E20D939F
:1002400000E20D930FE00D9300E00D9304E00D9399
:100250000FEF0D9308E0A0E6A00F04E00EBF0FE53E
:100260000DBF04E602BF01E009BF04E003BF79D07F
:100270000FEF04BB0FE707BB7894FFCF04E602BF84
:100280001395183019F0330F2D9104C031E010E0B0
:10029000A8502D9108E0A0E6A00FA20F4C9100E01D
:1002A00005BB48BB35BBA0E6A10FA3951895A6E8F2
:1002B0002CB12CB12F2D4C91403041F04130A9F0A0
:1002C0004230A9F04330D9F04430D9F0213421F044
:1002D0002E3421F0233429F041E017C038D042E019
:1002E00014C035D043E011C010C043E00EC02D3023
:1002F00021F02F7020D042E008C044E006C044E066
:1003000004C05FEF40E006D000C0A6E84C93A0E632
:10031000A10F18955D9BFECF0FE404BD5D9BFECF42
:100320000BE404BD5D9BFECF0DE004BD5D9BFECFE5
:100330000AE004BD0895A0E6B0E048E04A0FA41723
:1003400029F0022FA3952E910D93F9CF0895A0E6E1
:10035000B0E028E02A0FA21719F00AE00D93FBCFB6
:10036000089500E010BD00E409B900E00BB908E908
:080370000AB906E000BD089582
:00000001FF
