S01700006C616231305F666C6F61744D756C742E7372656366
S11300000C942A000C9434000C9434000C943400A6
S11300100C9434000C9434000C9434000C9434008C
S11300200C9434000C9434000C9434000C9434007C
S11300300C9434000C9434000C9434000C9434006C
S11300400C9434000C9434000C9434000C9434005C
S11300500C94340011241FBECFE5D4E0DEBFCDBF25
S11300600E94FA000C9471020C940000CF92DF926B
S1130070EF92FF920F931F93CF93DF936C01E12CC8
S1130080F12C23C0B701660F771F6E0D7F1D6C0F17
S11300907D1F8B01000F111F000F111F0C0D1D1D63
S11300A0072E000C880B990B0E947801F8016083DD
S11300B0718382839383219602C0C0E0D0E0C33071
S11300C0D10504F3FFEFEF1AFF0A83E0E816F10409
S11300D0A4F3DF91CF911F910F91FF90EF90DF90E8
S11300E0CF900895CF93DF93EB010E943600CE01A9
S11300F00E943600DF91CF9108954F925F926F92E4
S11301007F928F929F92AF92BF92CF92DF92EF92A3
S1130110FF920F931F93CF93DF936C013B012A014E
S113012000E010E053C0F801EE0FFF1FE00FF11FD5
S1130130EC0FFD1FEE0FFF1FEE0FFF1FEC0DFD1D5B
S11301406081718182819381FE01EE0FFF1FEC0FAC
S1130150FD1FEE0DFF1DEE0FFF1FEE0FFF1FE60D3F
S1130160F71D20813181428153810E9404029B0149
S1130170AC01C501B4010E940A014B015C01219646
S113018005C0C0E0D0E0812C912C5401C430D105CD
S113019054F2F801EE0FFF1FE00FF11FEE0DFF1DEB
S11301A0EE0FFF1FEE0FFF1FE40DF51D80829182FD
S11301B0A282B3828FEFE81AF80A02C0E12CF12C74
S11301C083E0E816F104ECF20F5F1F4F03301105D2
S11301D0ACF3DF91CF911F910F91FF90EF90DF90DF
S11301E0CF90BF90AF909F908F907F906F905F90D3
S11301F04F90089564E870E080E690E00E947200F9
S113020048EA50E064E870E080E690E00E947D00F7
S1130210FFCF5058BB27AA270E9421010C94CA0182
S11302200E94BC0138F00E94C30120F039F49F3FC2
S113023019F426F40C94B9010EF4E095E7FB0C9440
S1130240B301E92F0E94DB0158F3BA176207730761
S11302508407950720F079F4A6F50C94FD010EF4BB
S1130260E0950B2EBA2FA02D0B01B90190010C01C2
S1130270CA01A0011124FF27591B99F0593F50F4DA
S1130280503E68F11A16F040A22F232F342F442732
S1130290585FF3CF469537952795A795F04053952A
S11302A0C9F77EF41F16BA0B620B730B840BBAF0FA
S11302B09150A1F0FF0FBB1F661F771F881FC2F765
S11302C00EC0BA0F621F731F841F48F48795779579
S11302D06795B795F7959E3F08F0B0CF9395880F33
S11302E008F09927EE0F979587950895E89409C02B
S11302F097FB3EF490958095709561957F4F8F4F55
S11303009F4F9923A9F0F92F96E9BB279395F6956A
S1130310879577956795B795F111F8CFFAF4BB0FE8
S113032011F460FF1BC06F5F7F4F8F4F9F4F16C04C
S1130330882311F096E911C0772321F09EE8872FD6
S1130340762F05C0662371F096E8862F70E060E092
S11303502AF09A95660F771F881FDAF7880F96950B
S1130360879597F9089597F99F6780E870E060E0B2
S113037008959FEF80EC089500240A94161617063A
S113038018060906089500240A9412161306140682
S113039005060895092E0394000C11F4882352F0E5
S11303A0BB0F40F4BF2B11F460FF04C06F5F7F4F9D
S11303B08F4F9F4F089557FD9058440F551F59F084
S11303C05F3F71F04795880F97FB991F61F09F3F3E
S11303D079F087950895121613061406551FF2CF67
S11303E04695F1DF08C0161617061806991FF1CFB7
S11303F086957105610508940895E894BB276627DE
S11304007727CB0197F908950E9417020C94CA012B
S11304100E94BC0138F00E94C30120F0952311F022
S11304200C94B3010C94B90111240C94FE010E94A4
S1130430DB0170F3959FC1F3950F50E0551F629F48
S1130440F001729FBB27F00DB11D639FAA27F00D29
S1130450B11DAA1F649F6627B00DA11D661F829F50
S11304602227B00DA11D621F739FB00DA11D621F35
S1130470839FA00D611D221F749F3327A00D611D52
S1130480231F849F600D211D822F762F6A2F112434
S11304909F5750409AF0F1F088234AF0EE0FFF1F67
S11304A0BB1F661F771F881F91505040A9F79E3FBE
S11304B0510580F00C94B3010C94FE015F3FE4F30A
S11304C0983ED4F3869577956795B795F795E79514
S11304D09F5FC1F7FE2B880F911D9695879597F91D
S10904E00895F894FFCF1B
S9030000FC
