S01500006C616231305F696E744D756C742E7372656333
S11300000C942A000C9434000C9434000C943400A6
S11300100C9434000C9434000C9434000C9434008C
S11300200C9434000C9434000C9434000C9434007C
S11300300C9434000C9434000C9434000C9434006C
S11300400C9434000C9434000C9434000C9434005C
S11300500C94340011241FBECFE5D4E0DEBFCDBF25
S11300600E94BA000C94C9000C94000060E070E097
S113007018C09B01220F331F260F371F240F351F73
S1130080F901EE0FFF1FE80FF91F318320834F5F43
S11300905F4F02C040E050E04330510554F36F5FBE
S11300A07F4F63307105B4F30895CF93DF93EB0171
S11300B00E943600CE010E943600DF91CF91089550
S11300C0CF92DF92EF92FF920F931F93CF93DF9320
S11300D0A0E0B0E043C0FD01EE0FFF1FEA0FFB1FDD
S11300E0E20FF31FEE0FFF1FE80FF91FE080F1800E
S11300F0F901EE0FFF1FE20FF31FE00FF11FEE0FE8
S1130100FF1FE60FF71FC080D180EC9CF001ED9C2F
S1130110F00DFC9CF00D1124CE0FDF1F2F5F3F4F1D
S113012004C020E030E0C0E0D0E0243031059CF28F
S1130130FD01EE0FFF1FEA0FFB1FE00FF11FEE0F93
S1130140FF1FE40FF51FD183C0830F5F1F4F02C051
S113015000E010E00330110524F31196A330B1053B
S1130160BCF3DF91CF911F910F91FF90EF90DF903F
S1130170CF90089564E870E080E690E00E94550016
S113018048EA50E064E870E080E690E00E94600095
S1090190FFCFF894FFCF3D
S9030000FC
