S01300006C6162376E385F76312E302E73726563A1
S11300000C9431000C943B000C943B000C943B008A
S11300100C943B000C943B000C943B000C943B0070
S11300200C943B000C9495010C943B000C94CA0076
S11300300C943B000C943B000C943B000C943B0050
S11300400C943B000C943B000C943B000C943B0040
S11300500C943B00FA0022012601320136013B01D7
S11300604C0111241FBECFE5D4E0DEBFCDBF0E94FA
S113007007020C9433020C9400008AE08093600021
S11300808093610080936200809363008093640096
S113009080936500809366008093670008958F7055
S11300A0E0E6F0E090818193892FE836F105D1F7FD
S11300B008951092750090BD89B91BB888E98AB972
S11300C086E080BD089584E682BF81E089BF84E034
S11300D083BF089585E080936000809361008093DE
S11300E06200809363008093640080936500809332
S11300F066008093670091E0909368008FE480939A
S1130100690082E180936A0086E080936B008CE44E
S113011080936C0084E280936D0080E280936E0093
S11301208FE080936F001092700084E080937100E0
S11301308FEF8093720027E02093730020E82093D0
S11301407400109277001092780010927900109247
S11301507A0090937B0010927D0084BB8FE78ABB6A
S113016000008FEF9FEF0E9459000E946300789473
S113017008955D9BFECF84BD08958FE40E94B9006D
S11301808BE40E94B9008DE00E94B9008AE00E94CD
S1130190B90008951F920F920FB60F9211242F9356
S11301A03F934F935F936F937F938F939F93AF93FB
S11301B0BF93EF93FF93CF93DF931F92CDB7DEB737
S11301C08CB189838CB18983B0E0A6E7FC920000EE
S11301D080917600898320917A00E09175008E2FBA
S11301E090E08730910508F068C0FC01E65DFF4FA0
S11301F00C942D028981813421F481E0809375006F
S11302005CC089818E3431F40E943D0082E0809389
S1130210750053C08981833431F40E943D0083E02A
S1130220809375004AC08981833521F485E08093E9
S1130230750043C08981813509F03FC086E0809311
S113024075003BC083E08093750037C089818D3091
S113025021F484E08093750030C0898190E00E948D
S11302604F002BC084E08093750027C00E94BD001E
S11302701092750022C039813F70315081E090E0C6
S113028002C0880F991F3A95E2F7282B20937A0031
S113029083E08093750011C039813F70315081E053
S11302A090E002C0880F991F3A95E2F780952823C1
S11302B020937A0083E0809375000F90DF91CF91B3
S11302C0FF91EF91BF91AF919F918F917F916F912A
S11302D05F914F913F912F910F900FBE0F901F9000
S11302E0189580917700813021F48093780080E024
S11302F001C08F5F8093770080917800089590917A
S11303007A008091790041E050E08F5F833009F4F6
S113031080E09A01082E02C0220F331F0A94E2F7EC
S1130320292399F38093790008951F920F920FB6B1
S11303300F9211241F932F933F934F935F936F93C7
S11303407F938F939F93AF93BF93CF93DF93EF9359
S1130350FF93C0917300D091740084E682BFC730CC
S113036018F4CF5FDD0F02C0D1E0C0E015BAEC2F66
S1130370F0E0E05AFF4FE081F0E0E859FF4F808160
S11303808BBBD5BB10917A000E947101813039F486
S1130390112319F00E947F0102C010927800C093CB
S11303A07300D0937400FF91EF91DF91CF91BF91CF
S11303B0AF919F918F917F916F915F914F913F91F9
S11303C02F911F910F900FBE0F901F901895809141
S11303D07B00803811F0880F01C081E088BB8093D6
S11303E07B00089580917C00803811F0869501C0CF
S11303F081E088BB80937C00089581E090917D002A
S1130400911180E0819588BB80937D000895CF93FE
S1130410DF9300D0CDB7DEB70E946A0080917900E7
S11304208A83A9E7B0E0E8E7F0E08981813091F4BC
S11304308C918A838A81813039F018F0823039F0C6
S113044008C00E94E70105C00E94F20102C00E9498
S1130450FD01108280818983E8CFEE0FFF1F059094
S10D0460F491E02D0994F894FFCF05
S9030000FC
