:100000000C942A000C948C000C9497000C943400EF
:100010000C9434000C9434000C9434000C94340090
:100020000C9434000C9436000C9434000C9434007E
:100030000C9434000C9434000C9434000C94340070
:100040000C9434000C9434000C9434000C94340060
:100050000C94340011241FBECFE5D4E0DEBFCDBF29
:100060000E94BB000C94BE000C9400001F920F92E3
:100070000FB60F9211242F933F934F935F936F937B
:100080008F939F93CF93DF9300D0CDB7DEB784E6F5
:1000900082BF209160008091610099B3998399811A
:1000A0009170998399B396959A839A8191709A8366
:1000B000811113C0998129130EC030E06A8191E04B
:1000C0009627492F417050E02417350721F42981E4
:1000D0009A81291302C08F5F0DC08A3049F489814B
:1000E000809360008981880F880F8BBB80E002C0FD
:1000F00081118F5F809361000F900F90DF91CF91FE
:100100009F918F916F915F914F913F912F910F90A0
:100110000FBE0F901F9018951F920F920FB60F925F
:10012000112412BA0F900FBE0F901F9018951F92B6
:100130000F920FB60F9211248F9382B3806182BB0E
:100140008F910F900FBE0F901F9018951092620024
:100150008BB7806C8BBF85B78A6085BF089510927E
:100160006000109261008CE78ABB83EF81BB0E9424
:10017000A600789408950E94AF00FFCFF894FFCFB7
:00000001FF
