S01100006C6162345F76302E312E737265634C
S11300000C942A000C9434000C9434000C943400A6
S11300100C9434000C9434000C9434000C9434008C
S11300200C9434000C94A4000C9434000C94C80078
S11300300C9434000C9434000C9434000C9434006C
S11300400C9434000C9434000C9434000C9434005C
S11300500C94340011241FBECFE5D4E0DEBFCDBF25
S11300600E9454010C9457010C940000B0E0A3E7E3
S11300701D913C9104E602BFA0E6A10FA395139540
S1130080183019F0330F2D9104C031E010E0A8505E
S11300902D9108E0A0E6A00FA20F4C9100E005BB53
S11300A04BBB35BBA3E71D933C931895B0E0A5E784
S11300B02CB12CB12F2D4C91403041F0413029F11D
S11300C0423029F14330A9F14430A9F1213421F01F
S11300D02E3421F0233469F041E031C0A0E6B0E0D1
S11300E028E02A0FA21719F00AE00D93FBCF42E093
S11300F026C0A0E6B0E028E02A0FA21719F00AE013
S11301000D93FBCF43E01BC01AC043E018C02D3051
S113011071F02F70A0E6B0E048E04A0FA41729F070
S1130120022FA3952E910D93F9CF42E008C044E02D
S113013006C044E004C05FEF40E0A9D000C0A5E7DA
S11301404C93A0E6A10F18951F920F920FB60F9231
S113015011242F933F934F935F936F937F938F93C8
S11301609F93AF93BF93EF93FF930E943600FF9149
S1130170EF91BF91AF919F918F917F916F915F911B
S11301804F913F912F910F900FBE0F901F90189594
S11301901F920F920FB60F9211242F933F934F93F8
S11301A05F936F937F938F939F93AF93BF93EF93DB
S11301B0FF930E945600FF91EF91BF91AF919F91E1
S11301C08F917F916F915F914F913F912F910F90FC
S11301D00FBE0F901F9018951092750090BD89B9AD
S11301E01BB888E98AB986E080BD089584E682BF99
S11301F081E089BF84E083BF089585E08093600037
S113020086E08093610097E09093620028E0209359
S1130210630029E0209364001092650021E020939C
S1130220660032E030936700209368002FE4209347
S1130230690022E120936A0080936B008CE4809330
S11302406C0084E280936D0080E280936E008FE006
S113025080936F001092700084E0809371008FEFA0
S1130260809372009093730090E89093740084BB21
S11302708FE78ABB00008FEF9FEF0E94EC000E9483
S1130280F600789408955D9BFECF84BD08958FE4B5
S11302900E9443018BE40E9443018DE00E944301CC
S11302A08AE00E94430108950E94FD00FFCFF89464
S10502B0FFCF7A
S9030000FC
